{
  "_format": "hh-sol-artifact-1",
  "contractName": "WhereInTheNFT_AllHandsIn_Drop1_Test",
  "sourceName": "contracts/wit.sol",
  "abi": [
    {
      "inputs": [
        {
          "internalType": "uint256",
          "name": "maxTokenSupply",
          "type": "uint256"
        },
        {
          "internalType": "string",
          "name": "initMetadataAPI",
          "type": "string"
        }
      ],
      "stateMutability": "nonpayable",
      "type": "constructor"
    },
    {
      "anonymous": false,
      "inputs": [
        {
          "indexed": true,
          "internalType": "address",
          "name": "owner",
          "type": "address"
        },
        {
          "indexed": true,
          "internalType": "address",
          "name": "approved",
          "type": "address"
        },
        {
          "indexed": true,
          "internalType": "uint256",
          "name": "tokenId",
          "type": "uint256"
        }
      ],
      "name": "Approval",
      "type": "event"
    },
    {
      "anonymous": false,
      "inputs": [
        {
          "indexed": true,
          "internalType": "address",
          "name": "owner",
          "type": "address"
        },
        {
          "indexed": true,
          "internalType": "address",
          "name": "operator",
          "type": "address"
        },
        {
          "indexed": false,
          "internalType": "bool",
          "name": "approved",
          "type": "bool"
        }
      ],
      "name": "ApprovalForAll",
      "type": "event"
    },
    {
      "anonymous": false,
      "inputs": [
        {
          "indexed": true,
          "internalType": "address",
          "name": "previousOwner",
          "type": "address"
        },
        {
          "indexed": true,
          "internalType": "address",
          "name": "newOwner",
          "type": "address"
        }
      ],
      "name": "OwnershipTransferred",
      "type": "event"
    },
    {
      "anonymous": false,
      "inputs": [
        {
          "indexed": false,
          "internalType": "uint256",
          "name": "tokenId",
          "type": "uint256"
        },
        {
          "components": [
            {
              "internalType": "address payable",
              "name": "account",
              "type": "address"
            },
            {
              "internalType": "uint96",
              "name": "value",
              "type": "uint96"
            }
          ],
          "indexed": false,
          "internalType": "struct LibPart.Part[]",
          "name": "royalties",
          "type": "tuple[]"
        }
      ],
      "name": "RoyaltiesSet",
      "type": "event"
    },
    {
      "anonymous": false,
      "inputs": [
        {
          "indexed": true,
          "internalType": "address",
          "name": "from",
          "type": "address"
        },
        {
          "indexed": true,
          "internalType": "address",
          "name": "to",
          "type": "address"
        },
        {
          "indexed": true,
          "internalType": "uint256",
          "name": "tokenId",
          "type": "uint256"
        }
      ],
      "name": "Transfer",
      "type": "event"
    },
    {
      "inputs": [],
      "name": "_payments",
      "outputs": [
        {
          "internalType": "address payable",
          "name": "",
          "type": "address"
        }
      ],
      "stateMutability": "view",
      "type": "function"
    },
    {
      "inputs": [
        {
          "internalType": "address",
          "name": "to",
          "type": "address"
        },
        {
          "internalType": "uint256",
          "name": "tokenId",
          "type": "uint256"
        }
      ],
      "name": "approve",
      "outputs": [],
      "stateMutability": "nonpayable",
      "type": "function"
    },
    {
      "inputs": [
        {
          "internalType": "address",
          "name": "owner",
          "type": "address"
        }
      ],
      "name": "balanceOf",
      "outputs": [
        {
          "internalType": "uint256",
          "name": "",
          "type": "uint256"
        }
      ],
      "stateMutability": "view",
      "type": "function"
    },
    {
      "inputs": [
        {
          "internalType": "uint256",
          "name": "tokenId",
          "type": "uint256"
        }
      ],
      "name": "getApproved",
      "outputs": [
        {
          "internalType": "address",
          "name": "",
          "type": "address"
        }
      ],
      "stateMutability": "view",
      "type": "function"
    },
    {
      "inputs": [
        {
          "internalType": "uint256",
          "name": "id",
          "type": "uint256"
        }
      ],
      "name": "getRaribleV2Royalties",
      "outputs": [
        {
          "components": [
            {
              "internalType": "address payable",
              "name": "account",
              "type": "address"
            },
            {
              "internalType": "uint96",
              "name": "value",
              "type": "uint96"
            }
          ],
          "internalType": "struct LibPart.Part[]",
          "name": "",
          "type": "tuple[]"
        }
      ],
      "stateMutability": "view",
      "type": "function"
    },
    {
      "inputs": [
        {
          "internalType": "address",
          "name": "owner",
          "type": "address"
        },
        {
          "internalType": "address",
          "name": "operator",
          "type": "address"
        }
      ],
      "name": "isApprovedForAll",
      "outputs": [
        {
          "internalType": "bool",
          "name": "",
          "type": "bool"
        }
      ],
      "stateMutability": "view",
      "type": "function"
    },
    {
      "inputs": [],
      "name": "maxSupply",
      "outputs": [
        {
          "internalType": "uint256",
          "name": "",
          "type": "uint256"
        }
      ],
      "stateMutability": "view",
      "type": "function"
    },
    {
      "inputs": [
        {
          "internalType": "address",
          "name": "recipient",
          "type": "address"
        }
      ],
      "name": "mintNFT",
      "outputs": [
        {
          "internalType": "uint256",
          "name": "",
          "type": "uint256"
        }
      ],
      "stateMutability": "payable",
      "type": "function"
    },
    {
      "inputs": [],
      "name": "name",
      "outputs": [
        {
          "internalType": "string",
          "name": "",
          "type": "string"
        }
      ],
      "stateMutability": "view",
      "type": "function"
    },
    {
      "inputs": [],
      "name": "owner",
      "outputs": [
        {
          "internalType": "address",
          "name": "",
          "type": "address"
        }
      ],
      "stateMutability": "view",
      "type": "function"
    },
    {
      "inputs": [
        {
          "internalType": "uint256",
          "name": "tokenId",
          "type": "uint256"
        }
      ],
      "name": "ownerOf",
      "outputs": [
        {
          "internalType": "address",
          "name": "",
          "type": "address"
        }
      ],
      "stateMutability": "view",
      "type": "function"
    },
    {
      "inputs": [],
      "name": "renounceOwnership",
      "outputs": [],
      "stateMutability": "nonpayable",
      "type": "function"
    },
    {
      "inputs": [
        {
          "internalType": "uint256",
          "name": "",
          "type": "uint256"
        },
        {
          "internalType": "uint256",
          "name": "",
          "type": "uint256"
        }
      ],
      "name": "royalties",
      "outputs": [
        {
          "internalType": "address payable",
          "name": "account",
          "type": "address"
        },
        {
          "internalType": "uint96",
          "name": "value",
          "type": "uint96"
        }
      ],
      "stateMutability": "view",
      "type": "function"
    },
    {
      "inputs": [
        {
          "internalType": "uint256",
          "name": "_tokenId",
          "type": "uint256"
        },
        {
          "internalType": "uint256",
          "name": "_salePrice",
          "type": "uint256"
        }
      ],
      "name": "royaltyInfo",
      "outputs": [
        {
          "internalType": "address",
          "name": "receiver",
          "type": "address"
        },
        {
          "internalType": "uint256",
          "name": "royaltyAmount",
          "type": "uint256"
        }
      ],
      "stateMutability": "view",
      "type": "function"
    },
    {
      "inputs": [
        {
          "internalType": "address",
          "name": "from",
          "type": "address"
        },
        {
          "internalType": "address",
          "name": "to",
          "type": "address"
        },
        {
          "internalType": "uint256",
          "name": "tokenId",
          "type": "uint256"
        }
      ],
      "name": "safeTransferFrom",
      "outputs": [],
      "stateMutability": "nonpayable",
      "type": "function"
    },
    {
      "inputs": [
        {
          "internalType": "address",
          "name": "from",
          "type": "address"
        },
        {
          "internalType": "address",
          "name": "to",
          "type": "address"
        },
        {
          "internalType": "uint256",
          "name": "tokenId",
          "type": "uint256"
        },
        {
          "internalType": "bytes",
          "name": "_data",
          "type": "bytes"
        }
      ],
      "name": "safeTransferFrom",
      "outputs": [],
      "stateMutability": "nonpayable",
      "type": "function"
    },
    {
      "inputs": [
        {
          "internalType": "address",
          "name": "operator",
          "type": "address"
        },
        {
          "internalType": "bool",
          "name": "approved",
          "type": "bool"
        }
      ],
      "name": "setApprovalForAll",
      "outputs": [],
      "stateMutability": "nonpayable",
      "type": "function"
    },
    {
      "inputs": [
        {
          "internalType": "string",
          "name": "newMetadataAPI_",
          "type": "string"
        }
      ],
      "name": "setMetadataAPI",
      "outputs": [],
      "stateMutability": "nonpayable",
      "type": "function"
    },
    {
      "inputs": [
        {
          "internalType": "uint256",
          "name": "_tokenId",
          "type": "uint256"
        },
        {
          "internalType": "address payable",
          "name": "_royaltiesReceipientAddress",
          "type": "address"
        },
        {
          "internalType": "uint96",
          "name": "_percentageBasisPoints",
          "type": "uint96"
        }
      ],
      "name": "setRoyalties",
      "outputs": [],
      "stateMutability": "nonpayable",
      "type": "function"
    },
    {
      "inputs": [
        {
          "internalType": "address",
          "name": "recipient",
          "type": "address"
        }
      ],
      "name": "specialMintNFT",
      "outputs": [
        {
          "internalType": "uint256",
          "name": "",
          "type": "uint256"
        }
      ],
      "stateMutability": "nonpayable",
      "type": "function"
    },
    {
      "inputs": [
        {
          "internalType": "bytes4",
          "name": "interfaceId",
          "type": "bytes4"
        }
      ],
      "name": "supportsInterface",
      "outputs": [
        {
          "internalType": "bool",
          "name": "",
          "type": "bool"
        }
      ],
      "stateMutability": "view",
      "type": "function"
    },
    {
      "inputs": [],
      "name": "symbol",
      "outputs": [
        {
          "internalType": "string",
          "name": "",
          "type": "string"
        }
      ],
      "stateMutability": "view",
      "type": "function"
    },
    {
      "inputs": [
        {
          "internalType": "uint256",
          "name": "tokenId",
          "type": "uint256"
        }
      ],
      "name": "tokenURI",
      "outputs": [
        {
          "internalType": "string",
          "name": "",
          "type": "string"
        }
      ],
      "stateMutability": "view",
      "type": "function"
    },
    {
      "inputs": [
        {
          "internalType": "address",
          "name": "from",
          "type": "address"
        },
        {
          "internalType": "address",
          "name": "to",
          "type": "address"
        },
        {
          "internalType": "uint256",
          "name": "tokenId",
          "type": "uint256"
        }
      ],
      "name": "transferFrom",
      "outputs": [],
      "stateMutability": "nonpayable",
      "type": "function"
    },
    {
      "inputs": [
        {
          "internalType": "address",
          "name": "newOwner",
          "type": "address"
        }
      ],
      "name": "transferOwnership",
      "outputs": [],
      "stateMutability": "nonpayable",
      "type": "function"
    },
    {
      "inputs": [],
      "name": "withdraw",
      "outputs": [],
      "stateMutability": "nonpayable",
      "type": "function"
    }
  ],
  "bytecode": "0x6080604052662386f26fc10000600b55604051806060016040528060238152602001620045d460239139600d90805190602001906200004092919062000332565b506040518060400160405280600b81526020017f5749545f4148495f315f54000000000000000000000000000000000000000000815250600e90805190602001906200008e92919062000332565b503480156200009c57600080fd5b50604051620045f7380380620045f78339818101604052810190620000c291906200046b565b600d8054620000d1906200056c565b80601f0160208091040260200160405190810160405280929190818152602001828054620000ff906200056c565b8015620001505780601f10620001245761010080835404028352916020019162000150565b820191906000526020600020905b8154815290600101906020018083116200013257829003601f168201915b5050505050600e805462000164906200056c565b80601f016020809104026020016040519081016040528092919081815260200182805462000192906200056c565b8015620001e35780601f10620001b757610100808354040283529160200191620001e3565b820191906000526020600020905b815481529060010190602001808311620001c557829003601f168201915b505050505081600090805190602001906200020092919062000332565b5080600190805190602001906200021992919062000332565b5050506200023c620002306200026460201b60201c565b6200026c60201b60201c565b81600a8190555080600990805190602001906200025b92919062000332565b5050506200061a565b600033905090565b6000600660009054906101000a900473ffffffffffffffffffffffffffffffffffffffff16905081600660006101000a81548173ffffffffffffffffffffffffffffffffffffffff021916908373ffffffffffffffffffffffffffffffffffffffff1602179055508173ffffffffffffffffffffffffffffffffffffffff168173ffffffffffffffffffffffffffffffffffffffff167f8be0079c531659141344cd1fd0a4f28419497f9722a3daafe3b4186f6b6457e060405160405180910390a35050565b82805462000340906200056c565b90600052602060002090601f016020900481019282620003645760008555620003b0565b82601f106200037f57805160ff1916838001178555620003b0565b82800160010185558215620003b0579182015b82811115620003af57825182559160200191906001019062000392565b5b509050620003bf9190620003c3565b5090565b5b80821115620003de576000816000905550600101620003c4565b5090565b6000620003f9620003f384620004f9565b620004c5565b9050828152602081018484840111156200041257600080fd5b6200041f84828562000536565b509392505050565b600082601f8301126200043957600080fd5b81516200044b848260208601620003e2565b91505092915050565b600081519050620004658162000600565b92915050565b600080604083850312156200047f57600080fd5b60006200048f8582860162000454565b925050602083015167ffffffffffffffff811115620004ad57600080fd5b620004bb8582860162000427565b9150509250929050565b6000604051905081810181811067ffffffffffffffff82111715620004ef57620004ee620005d1565b5b8060405250919050565b600067ffffffffffffffff821115620005175762000516620005d1565b5b601f19601f8301169050602081019050919050565b6000819050919050565b60005b838110156200055657808201518184015260208101905062000539565b8381111562000566576000848401525b50505050565b600060028204905060018216806200058557607f821691505b602082108114156200059c576200059b620005a2565b5b50919050565b7f4e487b7100000000000000000000000000000000000000000000000000000000600052602260045260246000fd5b7f4e487b7100000000000000000000000000000000000000000000000000000000600052604160045260246000fd5b6200060b816200052c565b81146200061757600080fd5b50565b613faa806200062a6000396000f3fe6080604052600436106101815760003560e01c8063715018a6116100d1578063b88d4fde1161008a578063cad96cca11610064578063cad96cca14610599578063d5abeb01146105d6578063e985e9c514610601578063f2fde38b1461063e57610181565b8063b88d4fde1461050a578063bd16c13914610533578063c87b56dd1461055c57610181565b8063715018a61461040b5780638924af74146104225780638da5cb5b1461046057806395d89b411461048b578063a22cb465146104b6578063a3322752146104df57610181565b80632a55205a1161013e57806342842e0e1161011857806342842e0e1461033857806354ba0f27146103615780636352211e1461039157806370a08231146103ce57610181565b80632a55205a146102a657806337ab85e2146102e45780633ccfd60b1461032157610181565b806301ffc9a71461018657806306fdde03146101c3578063081812fc146101ee578063095ea7b31461022b578063143094db1461025457806323b872dd1461027d575b600080fd5b34801561019257600080fd5b506101ad60048036038101906101a89190612c8d565b610667565b6040516101ba9190613767565b60405180910390f35b3480156101cf57600080fd5b506101d86106d0565b6040516101e59190613782565b60405180910390f35b3480156101fa57600080fd5b5061021560048036038101906102109190612d20565b610762565b6040516102229190613671565b60405180910390f35b34801561023757600080fd5b50610252600480360381019061024d9190612c51565b6107e7565b005b34801561026057600080fd5b5061027b60048036038101906102769190612d49565b6108ff565b005b34801561028957600080fd5b506102a4600480360381019061029f9190612b4b565b610aec565b005b3480156102b257600080fd5b506102cd60048036038101906102c89190612d98565b610b4c565b6040516102db92919061371c565b60405180910390f35b3480156102f057600080fd5b5061030b60048036038101906103069190612ae6565b610d22565b6040516103189190613a24565b60405180910390f35b34801561032d57600080fd5b50610336610e19565b005b34801561034457600080fd5b5061035f600480360381019061035a9190612b4b565b610ee4565b005b61037b60048036038101906103769190612ae6565b610f04565b6040516103889190613a24565b60405180910390f35b34801561039d57600080fd5b506103b860048036038101906103b39190612d20565b610fc3565b6040516103c59190613671565b60405180910390f35b3480156103da57600080fd5b506103f560048036038101906103f09190612ae6565b611075565b6040516104029190613a24565b60405180910390f35b34801561041757600080fd5b5061042061112d565b005b34801561042e57600080fd5b5061044960048036038101906104449190612d98565b6111b5565b6040516104579291906136a7565b60405180910390f35b34801561046c57600080fd5b5061047561122a565b6040516104829190613671565b60405180910390f35b34801561049757600080fd5b506104a0611254565b6040516104ad9190613782565b60405180910390f35b3480156104c257600080fd5b506104dd60048036038101906104d89190612c15565b6112e6565b005b3480156104eb57600080fd5b506104f46112fc565b604051610501919061368c565b60405180910390f35b34801561051657600080fd5b50610531600480360381019061052c9190612b9a565b611322565b005b34801561053f57600080fd5b5061055a60048036038101906105559190612cdf565b611384565b005b34801561056857600080fd5b50610583600480360381019061057e9190612d20565b61141a565b6040516105909190613782565b60405180910390f35b3480156105a557600080fd5b506105c060048036038101906105bb9190612d20565b6114c1565b6040516105cd9190613745565b60405180910390f35b3480156105e257600080fd5b506105eb6115c3565b6040516105f89190613a24565b60405180910390f35b34801561060d57600080fd5b5061062860048036038101906106239190612b0f565b6115cd565b6040516106359190613767565b60405180910390f35b34801561064a57600080fd5b5061066560048036038101906106609190612ae6565b611661565b005b60006344c74bcc60e01b7bffffffffffffffffffffffffffffffffffffffffffffffffffffffff1916827bffffffffffffffffffffffffffffffffffffffffffffffffffffffff191614156106bf57600190506106cb565b6106c882611759565b90505b919050565b6060600080546106df90613d71565b80601f016020809104026020016040519081016040528092919081815260200182805461070b90613d71565b80156107585780601f1061072d57610100808354040283529160200191610758565b820191906000526020600020905b81548152906001019060200180831161073b57829003601f168201915b5050505050905090565b600061076d8261183b565b6107ac576040517f08c379a00000000000000000000000000000000000000000000000000000000081526004016107a390613904565b60405180910390fd5b6004600083815260200190815260200160002060009054906101000a900473ffffffffffffffffffffffffffffffffffffffff169050919050565b60006107f282610fc3565b90508073ffffffffffffffffffffffffffffffffffffffff168373ffffffffffffffffffffffffffffffffffffffff161415610863576040517f08c379a000000000000000000000000000000000000000000000000000000000815260040161085a90613984565b60405180910390fd5b8073ffffffffffffffffffffffffffffffffffffffff166108826118a7565b73ffffffffffffffffffffffffffffffffffffffff1614806108b157506108b0816108ab6118a7565b6115cd565b5b6108f0576040517f08c379a00000000000000000000000000000000000000000000000000000000081526004016108e790613884565b60405180910390fd5b6108fa83836118af565b505050565b6109076118a7565b73ffffffffffffffffffffffffffffffffffffffff1661092561122a565b73ffffffffffffffffffffffffffffffffffffffff161461097b576040517f08c379a000000000000000000000000000000000000000000000000000000000815260040161097290613924565b60405180910390fd5b6000600167ffffffffffffffff8111156109be577f4e487b7100000000000000000000000000000000000000000000000000000000600052604160045260246000fd5b6040519080825280602002602001820160405280156109f757816020015b6109e46128a2565b8152602001906001900390816109dc5790505b5090508181600081518110610a35577f4e487b7100000000000000000000000000000000000000000000000000000000600052603260045260246000fd5b6020026020010151602001906bffffffffffffffffffffffff1690816bffffffffffffffffffffffff16815250508281600081518110610a9e577f4e487b7100000000000000000000000000000000000000000000000000000000600052603260045260246000fd5b60200260200101516000019073ffffffffffffffffffffffffffffffffffffffff16908173ffffffffffffffffffffffffffffffffffffffff1681525050610ae68482611968565b50505050565b610afd610af76118a7565b82611bd9565b610b3c576040517f08c379a0000000000000000000000000000000000000000000000000000000008152600401610b33906139a4565b60405180910390fd5b610b47838383611cb7565b505050565b600080600060076000868152602001908152602001600020805480602002602001604051908101604052809291908181526020016000905b82821015610c46578382906000526020600020016040518060400160405290816000820160009054906101000a900473ffffffffffffffffffffffffffffffffffffffff1673ffffffffffffffffffffffffffffffffffffffff1673ffffffffffffffffffffffffffffffffffffffff1681526020016000820160149054906101000a90046bffffffffffffffffffffffff166bffffffffffffffffffffffff166bffffffffffffffffffffffff168152505081526020019060010190610b84565b505050509050600081511115610d125780600081518110610c90577f4e487b7100000000000000000000000000000000000000000000000000000000600052603260045260246000fd5b60200260200101516000015161271082600081518110610cd9577f4e487b7100000000000000000000000000000000000000000000000000000000600052603260045260246000fd5b6020026020010151602001516bffffffffffffffffffffffff1686610cfe9190613c03565b610d089190613bd2565b9250925050610d1b565b60008092509250505b9250929050565b6000610d2c6118a7565b73ffffffffffffffffffffffffffffffffffffffff16610d4a61122a565b73ffffffffffffffffffffffffffffffffffffffff1614610da0576040517f08c379a0000000000000000000000000000000000000000000000000000000008152600401610d9790613924565b60405180910390fd5b600a54610dad6008611f13565b1115610dee576040517f08c379a0000000000000000000000000000000000000000000000000000000008152600401610de590613a04565b60405180910390fd5b6000610dfa6008611f13565b9050610e068382611f21565b610e106008611f3f565b80915050919050565b610e216118a7565b73ffffffffffffffffffffffffffffffffffffffff16610e3f61122a565b73ffffffffffffffffffffffffffffffffffffffff1614610e95576040517f08c379a0000000000000000000000000000000000000000000000000000000008152600401610e8c90613924565b60405180910390fd5b60004790503373ffffffffffffffffffffffffffffffffffffffff166108fc829081150290604051600060405180830381858888f19350505050158015610ee0573d6000803e3d6000fd5b5050565b610eff83838360405180602001604052806000815250611322565b505050565b6000600a54610f136008611f13565b1115610f54576040517f08c379a0000000000000000000000000000000000000000000000000000000008152600401610f4b90613a04565b60405180910390fd5b34600b5414610f98576040517f08c379a0000000000000000000000000000000000000000000000000000000008152600401610f8f906139c4565b60405180910390fd5b6000610fa46008611f13565b9050610fb08382611f21565b610fba6008611f3f565b80915050919050565b6000806002600084815260200190815260200160002060009054906101000a900473ffffffffffffffffffffffffffffffffffffffff169050600073ffffffffffffffffffffffffffffffffffffffff168173ffffffffffffffffffffffffffffffffffffffff16141561106c576040517f08c379a0000000000000000000000000000000000000000000000000000000008152600401611063906138c4565b60405180910390fd5b80915050919050565b60008073ffffffffffffffffffffffffffffffffffffffff168273ffffffffffffffffffffffffffffffffffffffff1614156110e6576040517f08c379a00000000000000000000000000000000000000000000000000000000081526004016110dd906138a4565b60405180910390fd5b600360008373ffffffffffffffffffffffffffffffffffffffff1673ffffffffffffffffffffffffffffffffffffffff168152602001908152602001600020549050919050565b6111356118a7565b73ffffffffffffffffffffffffffffffffffffffff1661115361122a565b73ffffffffffffffffffffffffffffffffffffffff16146111a9576040517f08c379a00000000000000000000000000000000000000000000000000000000081526004016111a090613924565b60405180910390fd5b6111b36000611f55565b565b600760205281600052604060002081815481106111d157600080fd5b90600052602060002001600091509150508060000160009054906101000a900473ffffffffffffffffffffffffffffffffffffffff16908060000160149054906101000a90046bffffffffffffffffffffffff16905082565b6000600660009054906101000a900473ffffffffffffffffffffffffffffffffffffffff16905090565b60606001805461126390613d71565b80601f016020809104026020016040519081016040528092919081815260200182805461128f90613d71565b80156112dc5780601f106112b1576101008083540402835291602001916112dc565b820191906000526020600020905b8154815290600101906020018083116112bf57829003601f168201915b5050505050905090565b6112f86112f16118a7565b838361201b565b5050565b600c60009054906101000a900473ffffffffffffffffffffffffffffffffffffffff1681565b61133361132d6118a7565b83611bd9565b611372576040517f08c379a0000000000000000000000000000000000000000000000000000000008152600401611369906139a4565b60405180910390fd5b61137e84848484612188565b50505050565b61138c6118a7565b73ffffffffffffffffffffffffffffffffffffffff166113aa61122a565b73ffffffffffffffffffffffffffffffffffffffff1614611400576040517f08c379a00000000000000000000000000000000000000000000000000000000081526004016113f790613924565b60405180910390fd5b80600990805190602001906114169291906128e0565b5050565b60606114258261183b565b611464576040517f08c379a000000000000000000000000000000000000000000000000000000000815260040161145b90613964565b60405180910390fd5b600061146e6121e4565b9050600081511161148e57604051806020016040528060008152506114b9565b8061149884612276565b6040516020016114a992919061364d565b6040516020818303038152906040525b915050919050565b606060076000838152602001908152602001600020805480602002602001604051908101604052809291908181526020016000905b828210156115b8578382906000526020600020016040518060400160405290816000820160009054906101000a900473ffffffffffffffffffffffffffffffffffffffff1673ffffffffffffffffffffffffffffffffffffffff1673ffffffffffffffffffffffffffffffffffffffff1681526020016000820160149054906101000a90046bffffffffffffffffffffffff166bffffffffffffffffffffffff166bffffffffffffffffffffffff1681525050815260200190600101906114f6565b505050509050919050565b6000600a54905090565b6000600560008473ffffffffffffffffffffffffffffffffffffffff1673ffffffffffffffffffffffffffffffffffffffff16815260200190815260200160002060008373ffffffffffffffffffffffffffffffffffffffff1673ffffffffffffffffffffffffffffffffffffffff16815260200190815260200160002060009054906101000a900460ff16905092915050565b6116696118a7565b73ffffffffffffffffffffffffffffffffffffffff1661168761122a565b73ffffffffffffffffffffffffffffffffffffffff16146116dd576040517f08c379a00000000000000000000000000000000000000000000000000000000081526004016116d490613924565b60405180910390fd5b600073ffffffffffffffffffffffffffffffffffffffff168173ffffffffffffffffffffffffffffffffffffffff16141561174d576040517f08c379a0000000000000000000000000000000000000000000000000000000008152600401611744906137c4565b60405180910390fd5b61175681611f55565b50565b60007f80ac58cd000000000000000000000000000000000000000000000000000000007bffffffffffffffffffffffffffffffffffffffffffffffffffffffff1916827bffffffffffffffffffffffffffffffffffffffffffffffffffffffff1916148061182457507f5b5e139f000000000000000000000000000000000000000000000000000000007bffffffffffffffffffffffffffffffffffffffffffffffffffffffff1916827bffffffffffffffffffffffffffffffffffffffffffffffffffffffff1916145b80611834575061183382612423565b5b9050919050565b60008073ffffffffffffffffffffffffffffffffffffffff166002600084815260200190815260200160002060009054906101000a900473ffffffffffffffffffffffffffffffffffffffff1673ffffffffffffffffffffffffffffffffffffffff1614159050919050565b600033905090565b816004600083815260200190815260200160002060006101000a81548173ffffffffffffffffffffffffffffffffffffffff021916908373ffffffffffffffffffffffffffffffffffffffff160217905550808273ffffffffffffffffffffffffffffffffffffffff1661192283610fc3565b73ffffffffffffffffffffffffffffffffffffffff167f8c5be1e5ebec7d5bd14f71427d1e84f3dd0314c0f7b2291e5b200ac8c7c3b92560405160405180910390a45050565b60005b8151811015611bca57600073ffffffffffffffffffffffffffffffffffffffff168282815181106119c5577f4e487b7100000000000000000000000000000000000000000000000000000000600052603260045260246000fd5b60200260200101516000015173ffffffffffffffffffffffffffffffffffffffff161415611a28576040517f08c379a0000000000000000000000000000000000000000000000000000000008152600401611a1f906139e4565b60405180910390fd5b6000828281518110611a63577f4e487b7100000000000000000000000000000000000000000000000000000000600052603260045260246000fd5b6020026020010151602001516bffffffffffffffffffffffff161415611abe576040517f08c379a0000000000000000000000000000000000000000000000000000000008152600401611ab590613864565b60405180910390fd5b60076000848152602001908152602001600020828281518110611b0a577f4e487b7100000000000000000000000000000000000000000000000000000000600052603260045260246000fd5b60200260200101519080600181540180825580915050600190039060005260206000200160009091909190915060008201518160000160006101000a81548173ffffffffffffffffffffffffffffffffffffffff021916908373ffffffffffffffffffffffffffffffffffffffff16021790555060208201518160000160146101000a8154816bffffffffffffffffffffffff02191690836bffffffffffffffffffffffff16021790555050508080611bc290613da3565b91505061196b565b50611bd5828261248d565b5050565b6000611be48261183b565b611c23576040517f08c379a0000000000000000000000000000000000000000000000000000000008152600401611c1a90613844565b60405180910390fd5b6000611c2e83610fc3565b90508073ffffffffffffffffffffffffffffffffffffffff168473ffffffffffffffffffffffffffffffffffffffff161480611c9d57508373ffffffffffffffffffffffffffffffffffffffff16611c8584610762565b73ffffffffffffffffffffffffffffffffffffffff16145b80611cae5750611cad81856115cd565b5b91505092915050565b8273ffffffffffffffffffffffffffffffffffffffff16611cd782610fc3565b73ffffffffffffffffffffffffffffffffffffffff1614611d2d576040517f08c379a0000000000000000000000000000000000000000000000000000000008152600401611d2490613944565b60405180910390fd5b600073ffffffffffffffffffffffffffffffffffffffff168273ffffffffffffffffffffffffffffffffffffffff161415611d9d576040517f08c379a0000000000000000000000000000000000000000000000000000000008152600401611d9490613804565b60405180910390fd5b611da88383836124ca565b611db36000826118af565b6001600360008573ffffffffffffffffffffffffffffffffffffffff1673ffffffffffffffffffffffffffffffffffffffff1681526020019081526020016000206000828254611e039190613c5d565b925050819055506001600360008473ffffffffffffffffffffffffffffffffffffffff1673ffffffffffffffffffffffffffffffffffffffff1681526020019081526020016000206000828254611e5a9190613b7c565b92505081905550816002600083815260200190815260200160002060006101000a81548173ffffffffffffffffffffffffffffffffffffffff021916908373ffffffffffffffffffffffffffffffffffffffff160217905550808273ffffffffffffffffffffffffffffffffffffffff168473ffffffffffffffffffffffffffffffffffffffff167fddf252ad1be2c89b69c2b068fc378daa952ba7f163c4a11628f55a4df523b3ef60405160405180910390a4505050565b600081600001549050919050565b611f3b8282604051806020016040528060008152506124cf565b5050565b6001816000016000828254019250508190555050565b6000600660009054906101000a900473ffffffffffffffffffffffffffffffffffffffff16905081600660006101000a81548173ffffffffffffffffffffffffffffffffffffffff021916908373ffffffffffffffffffffffffffffffffffffffff1602179055508173ffffffffffffffffffffffffffffffffffffffff168173ffffffffffffffffffffffffffffffffffffffff167f8be0079c531659141344cd1fd0a4f28419497f9722a3daafe3b4186f6b6457e060405160405180910390a35050565b8173ffffffffffffffffffffffffffffffffffffffff168373ffffffffffffffffffffffffffffffffffffffff16141561208a576040517f08c379a000000000000000000000000000000000000000000000000000000000815260040161208190613824565b60405180910390fd5b80600560008573ffffffffffffffffffffffffffffffffffffffff1673ffffffffffffffffffffffffffffffffffffffff16815260200190815260200160002060008473ffffffffffffffffffffffffffffffffffffffff1673ffffffffffffffffffffffffffffffffffffffff16815260200190815260200160002060006101000a81548160ff0219169083151502179055508173ffffffffffffffffffffffffffffffffffffffff168373ffffffffffffffffffffffffffffffffffffffff167f17307eab39ab6107e8899845ad3d59bd9653f200f220920489ca2b5937696c318360405161217b9190613767565b60405180910390a3505050565b612193848484611cb7565b61219f8484848461252a565b6121de576040517f08c379a00000000000000000000000000000000000000000000000000000000081526004016121d5906137a4565b60405180910390fd5b50505050565b6060600980546121f390613d71565b80601f016020809104026020016040519081016040528092919081815260200182805461221f90613d71565b801561226c5780601f106122415761010080835404028352916020019161226c565b820191906000526020600020905b81548152906001019060200180831161224f57829003601f168201915b5050505050905090565b606060008214156122be576040518060400160405280600181526020017f3000000000000000000000000000000000000000000000000000000000000000815250905061241e565b600082905060005b600082146122f05780806122d990613da3565b915050600a826122e99190613bd2565b91506122c6565b60008167ffffffffffffffff811115612332577f4e487b7100000000000000000000000000000000000000000000000000000000600052604160045260246000fd5b6040519080825280601f01601f1916602001820160405280156123645781602001600182028036833780820191505090505b5090505b600085146124175760018261237d9190613c5d565b9150600a8561238c9190613dec565b60306123989190613b7c565b60f81b8183815181106123d4577f4e487b7100000000000000000000000000000000000000000000000000000000600052603260045260246000fd5b60200101907effffffffffffffffffffffffffffffffffffffffffffffffffffffffffffff1916908160001a905350600a856124109190613bd2565b9450612368565b8093505050505b919050565b60007f01ffc9a7000000000000000000000000000000000000000000000000000000007bffffffffffffffffffffffffffffffffffffffffffffffffffffffff1916827bffffffffffffffffffffffffffffffffffffffffffffffffffffffff1916149050919050565b7f3fa96d7b6bcbfe71ef171666d84db3cf52fa2d1c8afdb1cc8e486177f208b7df82826040516124be929190613a3f565b60405180910390a15050565b505050565b6124d983836126c1565b6124e6600084848461252a565b612525576040517f08c379a000000000000000000000000000000000000000000000000000000000815260040161251c906137a4565b60405180910390fd5b505050565b600061254b8473ffffffffffffffffffffffffffffffffffffffff1661288f565b156126b4578373ffffffffffffffffffffffffffffffffffffffff1663150b7a026125746118a7565b8786866040518563ffffffff1660e01b815260040161259694939291906136d0565b602060405180830381600087803b1580156125b057600080fd5b505af19250505080156125e157506040513d601f19601f820116820180604052508101906125de9190612cb6565b60015b612664573d8060008114612611576040519150601f19603f3d011682016040523d82523d6000602084013e612616565b606091505b5060008151141561265c576040517f08c379a0000000000000000000000000000000000000000000000000000000008152600401612653906137a4565b60405180910390fd5b805181602001fd5b63150b7a0260e01b7bffffffffffffffffffffffffffffffffffffffffffffffffffffffff1916817bffffffffffffffffffffffffffffffffffffffffffffffffffffffff1916149150506126b9565b600190505b949350505050565b600073ffffffffffffffffffffffffffffffffffffffff168273ffffffffffffffffffffffffffffffffffffffff161415612731576040517f08c379a0000000000000000000000000000000000000000000000000000000008152600401612728906138e4565b60405180910390fd5b61273a8161183b565b1561277a576040517f08c379a0000000000000000000000000000000000000000000000000000000008152600401612771906137e4565b60405180910390fd5b612786600083836124ca565b6001600360008473ffffffffffffffffffffffffffffffffffffffff1673ffffffffffffffffffffffffffffffffffffffff16815260200190815260200160002060008282546127d69190613b7c565b92505081905550816002600083815260200190815260200160002060006101000a81548173ffffffffffffffffffffffffffffffffffffffff021916908373ffffffffffffffffffffffffffffffffffffffff160217905550808273ffffffffffffffffffffffffffffffffffffffff16600073ffffffffffffffffffffffffffffffffffffffff167fddf252ad1be2c89b69c2b068fc378daa952ba7f163c4a11628f55a4df523b3ef60405160405180910390a45050565b600080823b905060008111915050919050565b6040518060400160405280600073ffffffffffffffffffffffffffffffffffffffff16815260200160006bffffffffffffffffffffffff1681525090565b8280546128ec90613d71565b90600052602060002090601f01602090048101928261290e5760008555612955565b82601f1061292757805160ff1916838001178555612955565b82800160010185558215612955579182015b82811115612954578251825591602001919060010190612939565b5b5090506129629190612966565b5090565b5b8082111561297f576000816000905550600101612967565b5090565b600061299661299184613aa0565b613a6f565b9050828152602081018484840111156129ae57600080fd5b6129b9848285613d2f565b509392505050565b60006129d46129cf84613ad0565b613a6f565b9050828152602081018484840111156129ec57600080fd5b6129f7848285613d2f565b509392505050565b600081359050612a0e81613eea565b92915050565b600081359050612a2381613f01565b92915050565b600081359050612a3881613f18565b92915050565b600081359050612a4d81613f2f565b92915050565b600081519050612a6281613f2f565b92915050565b600082601f830112612a7957600080fd5b8135612a89848260208601612983565b91505092915050565b600082601f830112612aa357600080fd5b8135612ab38482602086016129c1565b91505092915050565b600081359050612acb81613f46565b92915050565b600081359050612ae081613f5d565b92915050565b600060208284031215612af857600080fd5b6000612b06848285016129ff565b91505092915050565b60008060408385031215612b2257600080fd5b6000612b30858286016129ff565b9250506020612b41858286016129ff565b9150509250929050565b600080600060608486031215612b6057600080fd5b6000612b6e868287016129ff565b9350506020612b7f868287016129ff565b9250506040612b9086828701612abc565b9150509250925092565b60008060008060808587031215612bb057600080fd5b6000612bbe878288016129ff565b9450506020612bcf878288016129ff565b9350506040612be087828801612abc565b925050606085013567ffffffffffffffff811115612bfd57600080fd5b612c0987828801612a68565b91505092959194509250565b60008060408385031215612c2857600080fd5b6000612c36858286016129ff565b9250506020612c4785828601612a29565b9150509250929050565b60008060408385031215612c6457600080fd5b6000612c72858286016129ff565b9250506020612c8385828601612abc565b9150509250929050565b600060208284031215612c9f57600080fd5b6000612cad84828501612a3e565b91505092915050565b600060208284031215612cc857600080fd5b6000612cd684828501612a53565b91505092915050565b600060208284031215612cf157600080fd5b600082013567ffffffffffffffff811115612d0b57600080fd5b612d1784828501612a92565b91505092915050565b600060208284031215612d3257600080fd5b6000612d4084828501612abc565b91505092915050565b600080600060608486031215612d5e57600080fd5b6000612d6c86828701612abc565b9350506020612d7d86828701612a14565b9250506040612d8e86828701612ad1565b9150509250925092565b60008060408385031215612dab57600080fd5b6000612db985828601612abc565b9250506020612dca85828601612abc565b9150509250929050565b6000612de083836135f1565b60408301905092915050565b612df581613ca3565b82525050565b612e0481613ca3565b82525050565b612e1381613c91565b82525050565b6000612e2482613b10565b612e2e8185613b3e565b9350612e3983613b00565b8060005b83811015612e6a578151612e518882612dd4565b9750612e5c83613b31565b925050600181019050612e3d565b5085935050505092915050565b612e8081613cb5565b82525050565b6000612e9182613b1b565b612e9b8185613b4f565b9350612eab818560208601613d3e565b612eb481613ed9565b840191505092915050565b6000612eca82613b26565b612ed48185613b60565b9350612ee4818560208601613d3e565b612eed81613ed9565b840191505092915050565b6000612f0382613b26565b612f0d8185613b71565b9350612f1d818560208601613d3e565b80840191505092915050565b6000612f36603283613b60565b91507f4552433732313a207472616e7366657220746f206e6f6e20455243373231526560008301527f63656976657220696d706c656d656e74657200000000000000000000000000006020830152604082019050919050565b6000612f9c602683613b60565b91507f4f776e61626c653a206e6577206f776e657220697320746865207a65726f206160008301527f64647265737300000000000000000000000000000000000000000000000000006020830152604082019050919050565b6000613002601c83613b60565b91507f4552433732313a20746f6b656e20616c7265616479206d696e746564000000006000830152602082019050919050565b6000613042602483613b60565b91507f4552433732313a207472616e7366657220746f20746865207a65726f2061646460008301527f72657373000000000000000000000000000000000000000000000000000000006020830152604082019050919050565b60006130a8601983613b60565b91507f4552433732313a20617070726f766520746f2063616c6c6572000000000000006000830152602082019050919050565b60006130e8602c83613b60565b91507f4552433732313a206f70657261746f7220717565727920666f72206e6f6e657860008301527f697374656e7420746f6b656e00000000000000000000000000000000000000006020830152604082019050919050565b600061314e602083613b60565b91507f526f79616c74792076616c75652073686f756c6420626520706f7369746976656000830152602082019050919050565b600061318e603883613b60565b91507f4552433732313a20617070726f76652063616c6c6572206973206e6f74206f7760008301527f6e6572206e6f7220617070726f76656420666f7220616c6c00000000000000006020830152604082019050919050565b60006131f4602a83613b60565b91507f4552433732313a2062616c616e636520717565727920666f7220746865207a6560008301527f726f2061646472657373000000000000000000000000000000000000000000006020830152604082019050919050565b600061325a602983613b60565b91507f4552433732313a206f776e657220717565727920666f72206e6f6e657869737460008301527f656e7420746f6b656e00000000000000000000000000000000000000000000006020830152604082019050919050565b60006132c0602083613b60565b91507f4552433732313a206d696e7420746f20746865207a65726f20616464726573736000830152602082019050919050565b6000613300602c83613b60565b91507f4552433732313a20617070726f76656420717565727920666f72206e6f6e657860008301527f697374656e7420746f6b656e00000000000000000000000000000000000000006020830152604082019050919050565b6000613366602083613b60565b91507f4f776e61626c653a2063616c6c6572206973206e6f7420746865206f776e65726000830152602082019050919050565b60006133a6602983613b60565b91507f4552433732313a207472616e73666572206f6620746f6b656e2074686174206960008301527f73206e6f74206f776e00000000000000000000000000000000000000000000006020830152604082019050919050565b600061340c602f83613b60565b91507f4552433732314d657461646174613a2055524920717565727920666f72206e6f60008301527f6e6578697374656e7420746f6b656e00000000000000000000000000000000006020830152604082019050919050565b6000613472602183613b60565b91507f4552433732313a20617070726f76616c20746f2063757272656e74206f776e6560008301527f72000000000000000000000000000000000000000000000000000000000000006020830152604082019050919050565b60006134d8603183613b60565b91507f4552433732313a207472616e736665722063616c6c6572206973206e6f74206f60008301527f776e6572206e6f7220617070726f7665640000000000000000000000000000006020830152604082019050919050565b600061353e601583613b60565b91507f496e636f72726563742065746865722076616c756500000000000000000000006000830152602082019050919050565b600061357e601b83613b60565b91507f526563697069656e742073686f756c642062652070726573656e7400000000006000830152602082019050919050565b60006135be600f83613b60565b91507f4d696e74696e67206973206f76657200000000000000000000000000000000006000830152602082019050919050565b6040820160008201516136076000850182612dec565b50602082015161361a602085018261362f565b50505050565b61362981613d0d565b82525050565b61363881613d17565b82525050565b61364781613d17565b82525050565b60006136598285612ef8565b91506136658284612ef8565b91508190509392505050565b60006020820190506136866000830184612e0a565b92915050565b60006020820190506136a16000830184612dfb565b92915050565b60006040820190506136bc6000830185612dfb565b6136c9602083018461363e565b9392505050565b60006080820190506136e56000830187612e0a565b6136f26020830186612e0a565b6136ff6040830185613620565b81810360608301526137118184612e86565b905095945050505050565b60006040820190506137316000830185612e0a565b61373e6020830184613620565b9392505050565b6000602082019050818103600083015261375f8184612e19565b905092915050565b600060208201905061377c6000830184612e77565b92915050565b6000602082019050818103600083015261379c8184612ebf565b905092915050565b600060208201905081810360008301526137bd81612f29565b9050919050565b600060208201905081810360008301526137dd81612f8f565b9050919050565b600060208201905081810360008301526137fd81612ff5565b9050919050565b6000602082019050818103600083015261381d81613035565b9050919050565b6000602082019050818103600083015261383d8161309b565b9050919050565b6000602082019050818103600083015261385d816130db565b9050919050565b6000602082019050818103600083015261387d81613141565b9050919050565b6000602082019050818103600083015261389d81613181565b9050919050565b600060208201905081810360008301526138bd816131e7565b9050919050565b600060208201905081810360008301526138dd8161324d565b9050919050565b600060208201905081810360008301526138fd816132b3565b9050919050565b6000602082019050818103600083015261391d816132f3565b9050919050565b6000602082019050818103600083015261393d81613359565b9050919050565b6000602082019050818103600083015261395d81613399565b9050919050565b6000602082019050818103600083015261397d816133ff565b9050919050565b6000602082019050818103600083015261399d81613465565b9050919050565b600060208201905081810360008301526139bd816134cb565b9050919050565b600060208201905081810360008301526139dd81613531565b9050919050565b600060208201905081810360008301526139fd81613571565b9050919050565b60006020820190508181036000830152613a1d816135b1565b9050919050565b6000602082019050613a396000830184613620565b92915050565b6000604082019050613a546000830185613620565b8181036020830152613a668184612e19565b90509392505050565b6000604051905081810181811067ffffffffffffffff82111715613a9657613a95613eaa565b5b8060405250919050565b600067ffffffffffffffff821115613abb57613aba613eaa565b5b601f19601f8301169050602081019050919050565b600067ffffffffffffffff821115613aeb57613aea613eaa565b5b601f19601f8301169050602081019050919050565b6000819050602082019050919050565b600081519050919050565b600081519050919050565b600081519050919050565b6000602082019050919050565b600082825260208201905092915050565b600082825260208201905092915050565b600082825260208201905092915050565b600081905092915050565b6000613b8782613d0d565b9150613b9283613d0d565b9250827fffffffffffffffffffffffffffffffffffffffffffffffffffffffffffffffff03821115613bc757613bc6613e1d565b5b828201905092915050565b6000613bdd82613d0d565b9150613be883613d0d565b925082613bf857613bf7613e4c565b5b828204905092915050565b6000613c0e82613d0d565b9150613c1983613d0d565b9250817fffffffffffffffffffffffffffffffffffffffffffffffffffffffffffffffff0483118215151615613c5257613c51613e1d565b5b828202905092915050565b6000613c6882613d0d565b9150613c7383613d0d565b925082821015613c8657613c85613e1d565b5b828203905092915050565b6000613c9c82613ced565b9050919050565b6000613cae82613ced565b9050919050565b60008115159050919050565b60007fffffffff0000000000000000000000000000000000000000000000000000000082169050919050565b600073ffffffffffffffffffffffffffffffffffffffff82169050919050565b6000819050919050565b60006bffffffffffffffffffffffff82169050919050565b82818337600083830152505050565b60005b83811015613d5c578082015181840152602081019050613d41565b83811115613d6b576000848401525b50505050565b60006002820490506001821680613d8957607f821691505b60208210811415613d9d57613d9c613e7b565b5b50919050565b6000613dae82613d0d565b91507fffffffffffffffffffffffffffffffffffffffffffffffffffffffffffffffff821415613de157613de0613e1d565b5b600182019050919050565b6000613df782613d0d565b9150613e0283613d0d565b925082613e1257613e11613e4c565b5b828206905092915050565b7f4e487b7100000000000000000000000000000000000000000000000000000000600052601160045260246000fd5b7f4e487b7100000000000000000000000000000000000000000000000000000000600052601260045260246000fd5b7f4e487b7100000000000000000000000000000000000000000000000000000000600052602260045260246000fd5b7f4e487b7100000000000000000000000000000000000000000000000000000000600052604160045260246000fd5b6000601f19601f8301169050919050565b613ef381613c91565b8114613efe57600080fd5b50565b613f0a81613ca3565b8114613f1557600080fd5b50565b613f2181613cb5565b8114613f2c57600080fd5b50565b613f3881613cc1565b8114613f4357600080fd5b50565b613f4f81613d0d565b8114613f5a57600080fd5b50565b613f6681613d17565b8114613f7157600080fd5b5056fea2646970667358221220d7759265c32f922e1b640281ff58f057ff9d46a471255dac7e311e0b549732f064736f6c634300080000335768657265496e5468654e46545f416c6c48616e6473496e5f44726f70315f54657374",
  "linkReferences": {},
  "deployedLinkReferences": {}
}